:100000000C942A000C9434000C9434000C943400AA
:100010000C9434000C9434000C9434000C94340090
:100020000C9434000C9434000C9434000C94340080
:100030000C9434000C9434000C9434000C94340070
:100040000C9436000C9434000C9434000C9434005E
:100050000C94340011241FBECFE5D8E0DEBFCDBF25
:100060000E9457000C9462000C9400001F920F92A3
:100070000FB60F9211242F938F939F9384B195B154
:100080008A3921E0920718F08FEF88BB07C08C3CBB
:10009000910518F481E088BB01C018BA369A9F9187
:1000A0008F912F910F900FBE0F901F9018958FEF8B
:1000B00087BB86B18E6C86B987B1806C87B978941E
:0800C000369AFFCFF894FFCF40
:00000001FF
